{
  "_format": "hh-sol-artifact-1",
  "contractName": "Trace",
  "sourceName": "contracts/Trace.sol",
  "abi": [
    {
      "anonymous": false,
      "inputs": [
        {
          "indexed": false,
          "internalType": "address",
          "name": "operator",
          "type": "address"
        },
        {
          "indexed": false,
          "internalType": "address",
          "name": "receiver",
          "type": "address"
        },
        {
          "indexed": false,
          "internalType": "string",
          "name": "batch_id",
          "type": "string"
        },
        {
          "indexed": false,
          "internalType": "string",
          "name": "phase_id",
          "type": "string"
        },
        {
          "indexed": false,
          "internalType": "string",
          "name": "data_modality",
          "type": "string"
        },
        {
          "indexed": false,
          "internalType": "string",
          "name": "data_digest",
          "type": "string"
        },
        {
          "indexed": false,
          "internalType": "uint256",
          "name": "timestamp",
          "type": "uint256"
        }
      ],
      "name": "Transfer",
      "type": "event"
    },
    {
      "inputs": [
        {
          "internalType": "address payable",
          "name": "receiver",
          "type": "address"
        },
        {
          "internalType": "string",
          "name": "batch_id",
          "type": "string"
        },
        {
          "internalType": "string",
          "name": "phase_id",
          "type": "string"
        },
        {
          "internalType": "string",
          "name": "metadata",
          "type": "string"
        },
        {
          "internalType": "string",
          "name": "digest",
          "type": "string"
        }
      ],
      "name": "addToBlockchain",
      "outputs": [],
      "stateMutability": "nonpayable",
      "type": "function"
    },
    {
      "inputs": [],
      "name": "getAllTransactions",
      "outputs": [
        {
          "components": [
            {
              "internalType": "address",
              "name": "sender",
              "type": "address"
            },
            {
              "internalType": "address",
              "name": "receiver",
              "type": "address"
            },
            {
              "internalType": "string",
              "name": "batch_id",
              "type": "string"
            },
            {
              "internalType": "string",
              "name": "phase_id",
              "type": "string"
            },
            {
              "internalType": "string",
              "name": "metadata",
              "type": "string"
            },
            {
              "internalType": "string",
              "name": "digest",
              "type": "string"
            },
            {
              "internalType": "uint256",
              "name": "timestamp",
              "type": "uint256"
            }
          ],
          "internalType": "struct Trace.TransferStruct[]",
          "name": "",
          "type": "tuple[]"
        }
      ],
      "stateMutability": "view",
      "type": "function"
    },
    {
      "inputs": [],
      "name": "getTransactionCount",
      "outputs": [
        {
          "internalType": "uint256",
          "name": "",
          "type": "uint256"
        }
      ],
      "stateMutability": "view",
      "type": "function"
    }
  ],
  "bytecode": "0x608060405234801561001057600080fd5b50610e25806100206000396000f3fe608060405234801561001057600080fd5b50600436106100415760003560e01c806327506f53146100465780632e7700f014610064578063815160b814610082575b600080fd5b61004e61009e565b60405161005b9190610908565b60405180910390f35b61006c6103fb565b6040516100799190610939565b60405180910390f35b61009c60048036038101906100979190610adb565b610404565b005b60606001805480602002602001604051908101604052809291908181526020016000905b828210156103f257838290600052602060002090600702016040518060e00160405290816000820160009054906101000a900473ffffffffffffffffffffffffffffffffffffffff1673ffffffffffffffffffffffffffffffffffffffff1673ffffffffffffffffffffffffffffffffffffffff1681526020016001820160009054906101000a900473ffffffffffffffffffffffffffffffffffffffff1673ffffffffffffffffffffffffffffffffffffffff1673ffffffffffffffffffffffffffffffffffffffff1681526020016002820180546101a190610bf5565b80601f01602080910402602001604051908101604052809291908181526020018280546101cd90610bf5565b801561021a5780601f106101ef5761010080835404028352916020019161021a565b820191906000526020600020905b8154815290600101906020018083116101fd57829003601f168201915b5050505050815260200160038201805461023390610bf5565b80601f016020809104026020016040519081016040528092919081815260200182805461025f90610bf5565b80156102ac5780601f10610281576101008083540402835291602001916102ac565b820191906000526020600020905b81548152906001019060200180831161028f57829003601f168201915b505050505081526020016004820180546102c590610bf5565b80601f01602080910402602001604051908101604052809291908181526020018280546102f190610bf5565b801561033e5780601f106103135761010080835404028352916020019161033e565b820191906000526020600020905b81548152906001019060200180831161032157829003601f168201915b5050505050815260200160058201805461035790610bf5565b80601f016020809104026020016040519081016040528092919081815260200182805461038390610bf5565b80156103d05780601f106103a5576101008083540402835291602001916103d0565b820191906000526020600020905b8154815290600101906020018083116103b357829003601f168201915b50505050508152602001600682015481525050815260200190600101906100c2565b50505050905090565b60008054905090565b60016000808282546104169190610c56565b9250508190555060016040518060e001604052803373ffffffffffffffffffffffffffffffffffffffff1681526020018773ffffffffffffffffffffffffffffffffffffffff16815260200186815260200185815260200184815260200183815260200142815250908060018154018082558091505060019003906000526020600020906007020160009091909190915060008201518160000160006101000a81548173ffffffffffffffffffffffffffffffffffffffff021916908373ffffffffffffffffffffffffffffffffffffffff16021790555060208201518160010160006101000a81548173ffffffffffffffffffffffffffffffffffffffff021916908373ffffffffffffffffffffffffffffffffffffffff16021790555060408201518160020190805190602001906105519291906105ff565b50606082015181600301908051906020019061056e9291906105ff565b50608082015181600401908051906020019061058b9291906105ff565b5060a08201518160050190805190602001906105a89291906105ff565b5060c0820151816006015550507fbb1299e12c6411ebea96796f71092881ea59540f3584309f1d639d7b7d557986338686868686426040516105f09796959493929190610d64565b60405180910390a15050505050565b82805461060b90610bf5565b90600052602060002090601f01602090048101928261062d5760008555610674565b82601f1061064657805160ff1916838001178555610674565b82800160010185558215610674579182015b82811115610673578251825591602001919060010190610658565b5b5090506106819190610685565b5090565b5b8082111561069e576000816000905550600101610686565b5090565b600081519050919050565b600082825260208201905092915050565b6000819050602082019050919050565b600073ffffffffffffffffffffffffffffffffffffffff82169050919050565b60006106f9826106ce565b9050919050565b610709816106ee565b82525050565b600081519050919050565b600082825260208201905092915050565b60005b8381101561074957808201518184015260208101905061072e565b83811115610758576000848401525b50505050565b6000601f19601f8301169050919050565b600061077a8261070f565b610784818561071a565b935061079481856020860161072b565b61079d8161075e565b840191505092915050565b6000819050919050565b6107bb816107a8565b82525050565b600060e0830160008301516107d96000860182610700565b5060208301516107ec6020860182610700565b5060408301518482036040860152610804828261076f565b9150506060830151848203606086015261081e828261076f565b91505060808301518482036080860152610838828261076f565b91505060a083015184820360a0860152610852828261076f565b91505060c083015161086760c08601826107b2565b508091505092915050565b600061087e83836107c1565b905092915050565b6000602082019050919050565b600061089e826106a2565b6108a881856106ad565b9350836020820285016108ba856106be565b8060005b858110156108f657848403895281516108d78582610872565b94506108e283610886565b925060208a019950506001810190506108be565b50829750879550505050505092915050565b600060208201905081810360008301526109228184610893565b905092915050565b610933816107a8565b82525050565b600060208201905061094e600083018461092a565b92915050565b6000604051905090565b600080fd5b600080fd5b6000610973826106ce565b9050919050565b61098381610968565b811461098e57600080fd5b50565b6000813590506109a08161097a565b92915050565b600080fd5b600080fd5b7f4e487b7100000000000000000000000000000000000000000000000000000000600052604160045260246000fd5b6109e88261075e565b810181811067ffffffffffffffff82111715610a0757610a066109b0565b5b80604052505050565b6000610a1a610954565b9050610a2682826109df565b919050565b600067ffffffffffffffff821115610a4657610a456109b0565b5b610a4f8261075e565b9050602081019050919050565b82818337600083830152505050565b6000610a7e610a7984610a2b565b610a10565b905082815260208101848484011115610a9a57610a996109ab565b5b610aa5848285610a5c565b509392505050565b600082601f830112610ac257610ac16109a6565b5b8135610ad2848260208601610a6b565b91505092915050565b600080600080600060a08688031215610af757610af661095e565b5b6000610b0588828901610991565b955050602086013567ffffffffffffffff811115610b2657610b25610963565b5b610b3288828901610aad565b945050604086013567ffffffffffffffff811115610b5357610b52610963565b5b610b5f88828901610aad565b935050606086013567ffffffffffffffff811115610b8057610b7f610963565b5b610b8c88828901610aad565b925050608086013567ffffffffffffffff811115610bad57610bac610963565b5b610bb988828901610aad565b9150509295509295909350565b7f4e487b7100000000000000000000000000000000000000000000000000000000600052602260045260246000fd5b60006002820490506001821680610c0d57607f821691505b60208210811415610c2157610c20610bc6565b5b50919050565b7f4e487b7100000000000000000000000000000000000000000000000000000000600052601160045260246000fd5b6000610c61826107a8565b9150610c6c836107a8565b9250827fffffffffffffffffffffffffffffffffffffffffffffffffffffffffffffffff03821115610ca157610ca0610c27565b5b828201905092915050565b610cb5816106ee565b82525050565b6000819050919050565b6000610ce0610cdb610cd6846106ce565b610cbb565b6106ce565b9050919050565b6000610cf282610cc5565b9050919050565b6000610d0482610ce7565b9050919050565b610d1481610cf9565b82525050565b600082825260208201905092915050565b6000610d368261070f565b610d408185610d1a565b9350610d5081856020860161072b565b610d598161075e565b840191505092915050565b600060e082019050610d79600083018a610cac565b610d866020830189610d0b565b8181036040830152610d988188610d2b565b90508181036060830152610dac8187610d2b565b90508181036080830152610dc08186610d2b565b905081810360a0830152610dd48185610d2b565b9050610de360c083018461092a565b9897505050505050505056fea2646970667358221220497f705d1f4777e658a2805629deb16f3195af4c959601803d7a20f977479da364736f6c63430008090033",
  "linkReferences": {},
  "deployedLinkReferences": {}
}